:100000000C942A000C9447000C9447000C94470071
:100010000C9447000C9447000C9447000C94470044
:100020000C9447000C9447000C9447000C94470034
:100030000C9447000C9447000C9447000C94470024
:100040000C9447000C9447000C9447000C94470014
:100050000C94470011241FBECFE5D8E0DEBFCDBF12
:1000600013E0A0E6B0E0E0E4FFE002C005900D92EE
:10007000A038B107D9F723E0A0E8B3E001C01D9292
:10008000A038B207E1F70E94FD020C949E070C9481
:1000900000008BBB88B38B7F88BB88B38D7F88BB08
:1000A00088B3816088BB8AE18A95F1F700C088B384
:1000B0008E7F88BB8AE18A95F1F700C008958BBBDB
:1000C00088B3846088BB88B38D7F88BB88B3816028
:1000D00088BB8AE18A95F1F700C088B38E7F88BB20
:1000E0008AE18A95F1F700C008958FEF8ABB87BB3C
:1000F00088B3806788BB8FE39CE90197F1F700C064
:1001000000008EE30E94490080E40E94490088EBD1
:100110000E94490080EC0E9449008FE30E94490040
:1001200008950F931F93CF93DF9388B3806388BBA9
:1001300000E010E010C088EB800F0E944900C0E092
:10014000D0E004C080E00E945F002196C034D10559
:10015000CCF30F5F1F4F083011056CF380E40E9451
:10016000490088EB0E944900DF91CF911F910F91C8
:1001700008952F923F924F925F926F927F928F924B
:100180009F92AF92BF92CF92DF92EF92FF920F9326
:100190001F93CF93DF93CDB7DEB72A970FB6F894AE
:1001A000DEBF0FBECDBF78876F83282F30E03E8340
:1001B0002D83C90188549F4F9C838B8398B3906192
:1001C00098BB98B39F7D98BB0E944900512C312C5D
:1001D000212C0F2EFFE34F2EF02D1A8619861A823E
:1001E00019824AC16D807E80719461947108769401
:1001F000762C66247794679495E0691A9CEF790AC7
:10020000E985FA856E167F0608F440C1803209F050
:1002100048C050C0A984BA84AE0CBF1C20E030E0B6
:1002200040E05FE3652D732D822D942D0E94D30451
:10023000C62ED72E082F192F0E94B6057695762F39
:10024000662777956795A616B70639F5F5E0EF1698
:10025000F10481F180E40E94490098B380E189278C
:1002600088BB98B380E2892788BB2B813C81B90188
:1002700080E090E00E94EC05252D332D422D542D79
:100280000E94D3040E94BD05862F0E9449005C2C69
:100290003D2C202E412EBA86A9863FEFE31AF30AA1
:1002A00003C0EE24E394F12C96E0E916F10408F47F
:1002B000B1CF00C089859A856816790608F4E6C032
:1002C000F4018081803209F44BC000E010E096C058
:1002D000F401808190E08097FC01EE0FFF1FEE0F8C
:1002E000FF1FE80FF91FE05AFF4FE00FF11F808159
:1002F0000E945F0029853A852F5F3F4F3A87298703
:10030000C9018F739927892B41F598B380E189271B
:1003100088BB98B380E2892788BBEB81FC81BF0151
:1003200080E090E00E94EC05252D332D422D542DC8
:100330000E94D3040E94BD05862F0E94490020E040
:1003400030E040E05FE3652D732D822D942D0E94F7
:10035000D304562E372E282E492E0F5F1F4F02C072
:1003600000E010E00530110508F4B2CF7FC0F401C1
:10037000808190E08097FC01EE0FFF1FEE0FFF1FC2
:10038000E80FF91FE05AFF4FE00FF11F80810E9434
:100390005F0029853A852F5F3F4F3A872987C9013A
:1003A0008F739927892B41F598B380E1892788BB02
:1003B00098B380E2892788BBEB81FC81BF0180E094
:1003C00090E00E94EC05252D332D422D542D0E94E6
:1003D000D3040E94BD05862F0E94490020E030E032
:1003E00040E05FE3652D732D822D942D0E94D30490
:1003F000562E372E282E492E0F5F1F4F0530110520
:1004000008F4B5CF80E00E945F0089859A85019647
:100410009A8789878F739927892B41F598B380E153
:10042000892788BB98B380E2892788BBEB81FC8150
:10043000BF0180E090E00E94EC05252D332D422D78
:10044000542D0E94D3040E94BD05862F0E944900AE
:1004500020E030E040E05FE3652D732D822D942D88
:100460000E94D304562E372E282E492E29813A81F8
:100470002F5F3F4F3A8329838F80988489819A81A7
:10048000880E991EF40180818111ACCE80E40E9417
:1004900049002A960FB6F894DEBF0FBECDBFDF919C
:1004A000CF911F910F91FF90EF90DF90CF90BF9071
:1004B000AF909F908F907F906F905F904F903F9004
:1004C0002F900895CF92DF92EF92FF920F931F9398
:1004D000CF93DF93CDB7DEB7C357D1090FB6F894EA
:1004E000DEBF0FBECDBF6B017C0100E010E00CC091
:1004F00020E030E040E251E4C701B6010E949E06D0
:100500006B017C010F5F1F4F20E030E040E85FE3AC
:10051000C701B6010E943F05882354F320E030E074
:1005200040E251E4C701B6010E949E060E94B60552
:100530002AE0AE014F5F5F4F0E94430786E0E0E490
:10054000F2E0DE011B9601900D928A95E1F7FE0123
:1005500071968EE5DF011D928A95E9F78DE693E7A6
:10056000E1969FAF8EAFE197E3961FAE1EAEE39785
:10057000E4961FAEE497369701900020E9F7319793
:1005800080E39EE291838083128280E090E00BC042
:10059000FE013B9601900020E9F7319720E330E01F
:1005A00031832083019698012150310982179307E6
:1005B0007CF3BE016F5F7F4FCE010B960E942D072B
:1005C000BE0161597F4FCE010B960E942D07BE01DF
:1005D000655F7F4F85E00E94B900CD58DF4F0FB6B1
:1005E000F894DEBF0FBECDBFDF91CF911F910F9169
:1005F000FF90EF90DF90CF900895CF93DF93CDB72A
:10060000DEB7C152D1400FB6F894DEBF0FBECDBFEA
:100610000E9475008FEF82BB1FBC1DBC1CBC80E21A
:1006200088BF81E48EBD08B605FEFDCF86B597B5BF
:1006300020E228BF21E02EBD08B605FEFDCF66B53D
:1006400077B520E228BF21E42EBD08B605FEFDCF18
:10065000C6B4D7B420E228BF1EBC8617970708F09F
:100660008DC16C157D0508F089C15B01A81AB90A16
:10067000C81AD90AE12CF12C60E074E284EF90E012
:10068000A70196010E940B07CA01B90128EE33E0C9
:1006900040E050E00E940B0729013A01B50180E0DB
:1006A00090E00E94EC054B015C01C701B6010E947D
:1006B000EC059B01AC01C501B4010E94440520E09A
:1006C00030E048EC52E40E949E06C25EDE4F688332
:1006D00079838A839B83CE51D1402AE0AE014F5F5C
:1006E0005F4FC301B2010E94430787E0E4EAF2E0F2
:1006F000DE01A658BF4F01900D928A95E1F71DE5E6
:10070000EAE7F0E0EC0FFD1F3796DF01212F1D9285
:100710002A95E9F785E0EBE7F3E0DE01AB5EBE4F3B
:1007200001900D928A95E1F7BE016F5F7F4FCE0178
:1007300086589F4F0E942D07BE016B5E7E4FCE01F3
:1007400086589F4F0E942D07C25EDE4F68817981D7
:100750008A819B81CE51D1400E94B605DC01CB013C
:100760004AE0BE01615F7F4F0E94380787E0E8E002
:10077000F3E0DE01569601900D928A95E1F7FE01B5
:100780007D96DF011D921A95E9F780E295E2C05F40
:10079000DE4F99838883C051D140CE5EDE4F1982EF
:1007A0001882C251D140CC5EDE4F1882C451D14074
:1007B000BE01615F7F4FCE0146960E942D07BE01AC
:1007C000605F7E4FCE0146960E942D07C301B201A5
:1007D0000E94EC059B01AC0160E070E080E89FE3C3
:1007E0000E9444050E946202BE0166587F4F80E06D
:1007F0000E94B900BE016A5E7F4F82E00E94B9008C
:10080000FE01EA5FFE4F01900020E9F731978CE38B
:100810009DE291838083128280E090E0DC010EC033
:10082000FE01EA5FFE4F01900020E9F731972DE2CB
:1008300030E0318320830196A11DB11D86309105E2
:10084000A105B10568F3BE016A5F7E4FFB0101900F
:100850000020E9F731978DE29EE391838083128235
:1008600086E00E94B900412C512C320179C0FE0172
:10087000E252FF4F01900020E9F731978DE290E0BE
:1008800091838083BFEF8B1A9B0AAB0ABB0A03C01C
:10089000812C912C5401C501B4010E94EC05C65E67
:1008A000DE4F688379838A839B83CA51D14020E0DD
:1008B00030E040E251E4C25EDE4F688179818A8196
:1008C0009B81CE51D1400E9444056B017C019B016C
:1008D000AC01C65EDE4F688179818A819B81CA51F5
:1008E000D1400E943F05882314F2812C912C5401A1
:1008F00010C0FE01E252FF4F01900020E9F731974E
:100900008FE590E0918380832FEF821A920AA20AEA
:10091000B20AC501B4010E94EC05C65EDE4F6883D1
:1009200079838A839B83CA51D140A701960160E0F5
:1009300070E080E291E40E94D2049B01AC01C65EAB
:10094000DE4F688179818A819B81CA51D1400E94A2
:100950003F05882374F23FEF431A530A630A730A70
:1009600082E0481651046104710408F491CFBE017D
:1009700062527F4F87E00E94B90007C00E94910039
:100980006CE673E081E00E94B9009AEAA2E0B5EE5D
:100990002FE09150A040B0402040D9F700000E94C5
:1009A00091003ACE5058BB27AA270E94EA040C9423
:1009B00064060E94560638F00E945D0620F039F465
:1009C0009F3F19F426F40C9453060EF4E095E7FBD0
:1009D0000C944D06E92F0E94750658F3BA1762076A
:1009E00073078407950720F079F4A6F50C94970611
:1009F0000EF4E0950B2EBA2FA02D0B01B90190013A
:100A00000C01CA01A0011124FF27591B99F0593F7D
:100A100050F4503E68F11A16F040A22F232F342FC5
:100A20004427585FF3CF469537952795A795F04013
:100A30005395C9F77EF41F16BA0B620B730B840B28
:100A4000BAF09150A1F0FF0FBB1F661F771F881FE0
:100A5000C2F70EC0BA0F621F731F841F48F4879538
:100A600077956795B795F7959E3F08F0B0CF93952A
:100A7000880F08F09927EE0F9795879508950E94A3
:100A8000290608F481E008950E9458050C94640634
:100A90000E945D0658F00E94560640F029F45F3F20
:100AA00029F00C944D0651110C9498060C945306A1
:100AB0000E94750668F39923B1F3552391F3951BB2
:100AC000550BBB27AA2762177307840738F09F5F6F
:100AD0005F4F220F331F441FAA1FA9F335D00E2EDC
:100AE0003AF0E0E832D091505040E695001CCAF749
:100AF0002BD0FE2F29D0660F771F881FBB1F26170C
:100B000037074807AB07B0E809F0BB0B802DBF01E2
:100B1000FF2793585F4F3AF09E3F510578F00C94B1
:100B20004D060C9498065F3FE4F3983ED4F3869507
:100B300077956795B795F7959F5FC9F7880F911DD2
:100B40009695879597F90895E1E0660F771F881FBE
:100B5000BB1F621773078407BA0720F0621B730B71
:100B6000840BBA0BEE1F88F7E09508950E94BD052F
:100B70006894B1110C94980608950E947D0688F03F
:100B80009F5798F0B92F9927B751B0F0E1F0660F51
:100B9000771F881F991F1AF0BA95C9F714C0B13092
:100BA00091F00E949706B1E008950C949706672F84
:100BB000782F8827B85F39F0B93FCCF386957795C1
:100BC0006795B395D9F73EF49095809570956195AA
:100BD0007F4F8F4F9F4F0895E89409C097FB3EF4D5
:100BE00090958095709561957F4F8F4F9F4F99237A
:100BF000A9F0F92F96E9BB279395F69587957795F8
:100C00006795B795F111F8CFFAF4BB0F11F460FFB7
:100C10001BC06F5F7F4F8F4F9F4F16C0882311F00F
:100C200096E911C0772321F09EE8872F762F05C023
:100C3000662371F096E8862F70E060E02AF09A95BE
:100C4000660F771F881FDAF7880F9695879597F9B3
:100C50000895990F0008550FAA0BE0E8FEEF16164D
:100C60001706E807F907C0F012161306E407F507A0
:100C700098F0621B730B840B950B39F40A2661F014
:100C8000232B242B252B21F408950A2609F4A140B7
:100C9000A6958FEF811D811D089597F99F6780E8C4
:100CA00070E060E008959FEF80EC089500240A94BE
:100CB0001616170618060906089500240A94121637
:100CC0001306140605060895092E0394000C11F46A
:100CD000882352F0BB0F40F4BF2B11F460FF04C017
:100CE0006F5F7F4F8F4F9F4F089557FD9058440F70
:100CF000551F59F05F3F71F04795880F97FB991F7B
:100D000061F09F3F79F08795089512161306140637
:100D1000551FF2CF4695F1DF08C0161617061806C4
:100D2000991FF1CF86957105610508940895E8949F
:100D3000BB2766277727CB0197F908950E94B10654
:100D40000C9464060E94560638F00E945D0620F05E
:100D5000952311F00C944D060C94530611240C9419
:100D600098060E94750670F3959FC1F3950F50E0A9
:100D7000551F629FF001729FBB27F00DB11D639F4D
:100D8000AA27F00DB11DAA1F649F6627B00DA11DF3
:100D9000661F829F2227B00DA11D621F739FB00D99
:100DA000A11D621F839FA00D611D221F749F332709
:100DB000A00D611D231F849F600D211D822F762FA2
:100DC0006A2F11249F5750409AF0F1F088234AF07F
:100DD000EE0FFF1FBB1F661F771F881F91505040EB
:100DE000A9F79E3F510580F00C944D060C9498068F
:100DF0005F3FE4F3983ED4F3869577956795B79572
:100E0000F795E7959F5FC1F7FE2B880F911D96958B
:100E1000879597F90895A1E21A2EAA1BBB1BFD0125
:100E20000DC0AA1FBB1FEE1FFF1FA217B307E407C9
:100E3000F50720F0A21BB30BE40BF50B661F771F21
:100E4000881F991F1A9469F7609570958095909501
:100E50009B01AC01BD01CF010895FB01DC010D90A8
:100E60000020E9F7119701900D920020E1F7089515
:100E7000BB274A3031F4992322F4BDE29095819545
:100E80009F4F0C947507BB272A3051F4992342F4E5
:100E9000BDE290958095709561957F4F8F4F9F4FE4
:100EA0000C945307BB27FA01A62F62177105810521
:100EB0009105330B30FB66F0AA27660F771F881F5A
:100EC000991FAA1FA21710F0A21B63953850A9F70B
:100ED000A05DAA3308F0A95DA19336F7B111B193D3
:100EE0001082CA010C948E07BB27FB015527AA2745
:100EF000880F991FAA1FA41710F0A41B83955051A7
:100F0000B9F7A05DAA3308F0A95DA193009779F71E
:100F1000B111B1931192CB010C948E07DC01FC014D
:100F2000672F71917723E1F7329704C07C916D931D
:100F300070836291AE17BF07C8F30895F894FFCF8E
:100F4000000000000000005F000000070007001420
:100F50007F147F14242A7F2A1223130864623649DF
:100F60005522500005030000001C224100004122D0
:100F70001C0014083E081408083E08080050300001
:100F8000000808080808006060000020100804023B
:100F90003E5149453E00427F400042615149462151
:100FA00041454B311814127F1027454545393C4ABD
:100FB000494930017109050336494949360649490D
:100FC000291E003636000000563600000814224163
:100FD00000141414141400412214080201510906CB
:100FE000324979413E7E1111117E7F494949363E91
:100FF000414141227F4141221C7F494949417F09AA
:101000000909013E4149497A7F0808087F00417F6C
:1010100041002040413F017F081422417F40404071
:10102000407F020C027F7F0408107F3E4141413E19
:101030007F090909063E4151215E7F09192946466B
:101040004949493101017F01013F4040403F1F2094
:1010500040201F3F4038403F631408146307087066
:1010600008076151494543007F41410002040810CF
:10107000200041417F000402010204404040404002
:10108000000102040020545454787F484444383806
:1010900044444420384444487F3854545418087E0B
:1010A0000901020C5252523E7F0804047800447D2C
:1010B00040002040443D007F1028440000417F4014
:1010C000007C041804787C080404783844444438CC
:1010D0007C14141408081414187C7C0804040848B0
:1010E00054545420043F4440203C4040207C1C2069
:1010F00040201C3C4030403C44281028440C5050B8
:10110000503C4464544C44000836410000007F00C9
:10111000000041360800100808100878464146785B
:1011200054696D653A0000000000000000000000F6
:1011300000000000000000000000000000000000AF
:10114000000000000000000000000000000000009F
:10115000000000000000000000000000000000008F
:10116000000000000000000000000000000000007F
:10117000000000000000000000000000000000006F
:1011800000000000467265713A2000000000000077
:10119000000000000000000000000000000000004F
:1011A000000000000000000000000000000000003F
:1011B000000000000000000000000000000000002F
:1011C000000000000000000000000000000000001F
:1011D000000000000000000000000000000000000F
:1011E0000000000000000000447574793A200000FF
:1011F00000000000000000000000000000000000EF
:1012000000000000000000000000000000000000DE
:1012100000000000000000000000000000000000CE
:1012200000000000000000000000000000000000BE
:1012300000000000000000000000000000000000AE
:101240000000000000000000000000004F55542086
:101250004F462052414E4745212100204B485A001D
:00000001FF
